:020000040800F2
:10000000B010002045010008F74A0008DB40000856
:10001000754A0008A30C0008C37000080000000027
:100020000000000000000000000000004D55000826
:100030000911000800000000B95300082D570008FE
:100040005F0100085F0100085F0100085F01000810
:100050005F0100085F0100085F0100085F01000800
:100060005F0100085F0100085F0100085F010008F0
:100070005F0100085F010008C9100008D9100008DE
:100080005F0100085F0100085F0100085F010008D0
:100090001D7000085F0100085F0100085F01000893
:1000A0005F0100085F0100085F0100085F010008B0
:1000B0001958000849580008795800085F010008DD
:1000C0005F0100085F0100085F0100085F01000890
:1000D0005F0100080D5D00085F0100085F01000876
:1000E0005F0100085F0100085F0100085F01000870
:1000F0005F0100085F0100085F0100085F01000860
:100100005F0100085F0100085F0100085F0100084F
:100110005F0100085F0100085F0100085F0100083F
:100120005F0100085F0100085F0100085F0100082F
:10013000DFF80CD000F0BAFB0048004771720008ED
:10014000B01000200648804706480047FEE7FEE75B
:10015000FEE7FEE7FEE7FEE7FEE7FEE7FEE7FEE777
:10016000C157000831010008202A04DB203A21FA97
:1001700002F00021704721FA02F3D040C2F12002C0
:100180009140084319467047F0B480EA0102D40F49
:100190004200B2EB410F02D20246084611464A0025
:1001A00042D0C30DDDB2C1F3C752AD1A202D35DAEE
:1001B000C1F3160141F4000204B15242C5F1200618
:1001C00002FA06F12A411044B3EBD05F23D0C4B148
:1001D000012DA0EBC35009DCF0BC4FF0004202EA55
:1001E000C352DBB200F5000000F0D4BA400000F1C9
:1001F000807000EBC350A0F1807040EAD1704900DC
:1002000009E0490841EAC071A0EBC35000F50000C5
:10021000400800EBC350F0BC00F0B3BA61420122C9
:1002200002EB4101001BF6E7F0BC704781F0004192
:10023000AAE780F00040A7E780EA010210B502F0CB
:100240000043400022D04A001FD0010E01EB126192
:10025000C0F35600C2F3560240F4000042F400021C
:10026000A0FB022000047F39140400D0401C50EA97
:10027000124001D44000491EC2B20C0604EBD0105B
:10028000401C4008802A02D003E0002010BD20F06E
:100290000100002900DA0020184310BD30B480EAC4
:1002A000010202F0004530F0004221F0004013D07E
:1002B00090B1C30DD40DC2F31601C0F31600E41AB9
:1002C00041F4000140F400027D34914201D3641CEA
:1002D00000E04900002C02DA30BC002070474FF4E7
:1002E00000000023914201D3891A034340084FEADA
:1002F0004101F7D151B1914202D14FF0004105E0E7
:1003000002D24FF0010101E06FF0010103EBC45094
:10031000284430BC00F035BA2DE9FE4F804681EA12
:100320000300C00F0C46009021F0004123F000456F
:10033000B8EB0200A94105D24046214690461C4632
:100340000B46024623F00040104347D0270DC7F369
:100350000A00C3F30A510290401A019040286BDA58
:10036000C3F3130040F4801B0098924620B1002391
:10037000D2EB030A63EB0B0B01985946C0F1400224
:10038000504600F0DDF906460D4650465946019AA2
:1003900000F0E5F910EB08006141002487EA1152F2
:1003A00084EAE7731A4340D0009A62B3019A012AA3
:1003B0004FEA075215DC001B61EB02014FF00042CF
:1003C00002EA0752CDE90042001C41F58011324695
:1003D0002B4600F01CFA03B0BDE8F08F40462146E2
:1003E000F9E7001B61EB0201001C41F580130018C6
:1003F0005B412018A2F5001747EB030140EAD570D6
:10040000B6196D4111E06D084FEA360645EAC07530
:100410004FEA0752001B61EB0201001C41F58011FD
:1004200049084FEA30000019514132462B4603B0CB
:10043000BDE8F04F00F0DCB9009801224000002335
:10044000D0EB020263EBE073009821464FEAE074C0
:10045000B8EB000061EB0401E9E783F000435BE7E0
:1004600081F0004158E72DE9FE4F81EA030404F0D2
:10047000004421F0004100944FF0000B23F00043B2
:1004800050EA01045ED052EA03045BD0C3F30A547D
:10049000C1F30A552C44A4F2F3340194A0FB025496
:1004A000C1F3130141F48011C3F3130343F4801328
:1004B00001FB024400FB034E840A970A44EA81547C
:1004C00047EA8357A4FB076802958D0A05FB078559
:1004D0004FEA932C04FB0C542705029D4FEA065863
:1004E00047EA1637B5EB08056EEB070C870E920E40
:1004F00047EA811742EA8312A7FB0201B6EB0B0120
:1005000064EB00042B0D43EA0C335E1844EB1C50E3
:10051000DA465146E7FB0201C5F313044FEA0B33F9
:1005200043EA14534FEA0432019C43EA0603A4F160
:100530000C040294009CCDE900B400F068F903B00B
:10054000BDE8F08F00200146F9E72DE9F04D81EA82
:10055000030404F0004B21F0004514464FF0000A5C
:1005600023F0004150EA050220D054EA01021DD0D8
:10057000C5F30A570246C5F31303C1F31300C1F3D1
:100580000A5640F4801543F48013A7EB0608101BAD
:10059000D64608F2FD3873EB050002D308F10108D6
:1005A00001E092185B41B8F1000F03DA0020014628
:1005B000BDE8F08D00204FF48011064684460EE021
:1005C000171B73EB050705D3121B63EB05030643EB
:1005D0004CEA010C49084FEA300092185B4150EA9E
:1005E0000107EDD152EA030012D082EA040083EA47
:1005F0000501084305D0101BAB4106D201220023A0
:1006000006E000224FF0004302E06FF001025310B9
:100610001AEB06004CEB085110EB0A0041EB0B0102
:10062000BDE8F04D00F0E4B8C10F80EAE070084486
:10063000CA079623002100F0ADB896230022114688
:1006400000F0A8B80EB540F2334102910021CDE987
:1006500000110A460B4600F0DAF803B000BD20F0A6
:100660000040C10DC0F3160040F400007F2901DAFC
:1006700000207047962903DCC1F19601C8407047FD
:10068000963988407047C1F30A5210B5C1F313017F
:1006900040F2FF3341F480119A4201DA002010BD8C
:1006A00040F233439A42A2F2334203DC5242FFF754
:1006B0005BFD10BD904010BD00F0004230F00040E6
:1006C0000AD0C10D01F56071C0F3160042EA015174
:1006D000C20840071143704700200146704701F0EF
:1006E000004330B421F0004150EA010206D00A0D67
:1006F000A2F56072C1F31301002A02DC30BC0020B5
:100700007047440F44EAC104C100E01830BC00EB5C
:10071000C25000F036B80000002801DBC0F10040F4
:10072000002901DBC1F1004181427047002801DB53
:10073000C0F10040002901DBC1F10041884270474F
:10074000202A04DB203A00FA02F100207047914091
:10075000C2F1200320FA03F3194390407047202A86
:1007600006DBCB17203A41FA02F043EAE07306E0D9
:1007700041FA02F3D040C2F12002914008431946E9
:1007800070470029A8BF7047401C490008BF20F0EF
:100790000100704710B4B0FA80FC00FA0CF050EA87
:1007A000010404BF10BC704749B1CCF1200421FA08
:1007B00004F411FA0CF118BF012121430843A3EB03
:1007C0000C01CB1D4FEA00614FEA102042BF002010
:1007D00010BC704700EBC35010440029A4BF10BCEC
:1007E0007047401C490008BF20F0010010BC704752
:1007F00010B5141E73F1000408DA401C41F1000129
:1008000092185B411A4301D120F0010010BD2DE97F
:10081000F04D92469B4611B1B1FA81F202E0B0FA76
:1008200080F220329046FFF78BFF04460F4640EAE5
:100830000A0041EA0B0153465A46084313D01146B9
:1008400053EA010019D0C8F140025046FFF78CFC72
:1008500005460E46504659464246FFF771FF08438B
:1008600005D0012004E020463946BDE8F08D002087
:10087000054346EAE0762C4337430A986305E40AC9
:10088000A0EB08000022FD0A44EA47540A3002D5D2
:1008900000200146E9E7010510196941DDE9084535
:1008A00000196941BDE8F04DA2E70000064C074D74
:1008B00006E0E06840F0010394E807009847103430
:1008C000AC42F6D3FFF738FC6C7500088C75000855
:1008D00070B504468026052006F0A6FCA18B0022F8
:1008E000A06901F043FD052006F09EFC042120468E
:1008F00000F0E5F8002511E0052006F095FCA1893F
:100900000122A06801F032FD052006F08DFCA189CE
:100910000022A06801F02AFD681CC5B2102DEBDB97
:10092000002520E0052006F07FFCA1890122A068B7
:1009300001F01CFD06F03C0028B1A18A01222069CB
:1009400001F014FD04E0A18A0022206901F00EFDEF
:100950007610052006F068FCA1890022A06801F04D
:1009600005FD681CC5B2082DDCDB0A2006F05CFC26
:10097000A18B0122A06901F0F9FC70BD7CB5044691
:100980000D4635BB01223049684600F061F8DDE9CB
:100990000001C4E900014FF480722B49684600F061
:1009A00057F8DDE90001C4E906014FF40072274958
:1009B000684600F04DF8DDE90001C4E902010222B9
:1009C0002149684600F044F8DDE90001C4E904016A
:1009D00023E001221D49684600F03AF8DDE90001F4
:1009E000C4E9000104221949684600F031F8DDE944
:1009F0000001C4E9060108221449684600F028F8FD
:100A0000DDE90001C4E9020102221049684600F054
:100A10001FF8DDE90001C4E90401A1890122A068F1
:100A200001F0A4FCA18B0122A06901F09FFCA18828
:100A30000122206801F09AFC642006F0F5FB2046B4
:100A4000FFF746FF7CBD0000000801400010014098
:100A50001CB50091ADF80420DDE90034C0E9003494
:100A60001CBD2DE9F04104460D46082705B90825AF
:100A7000002620E0052006F0D7FBA1890122A0680E
:100A800001F074FC07EA050028B1A18A012220695F
:100A900001F06CFC04E0A18A0022206901F066FCF0
:100AA0007F10052006F0C0FBA1890022A06801F09C
:100AB0005DFC701CC6B2042EDCDBBDE8F0812DE9C4
:100AC000F04104460D460827002620E0052006F0E8
:100AD000ABFBA1890122A06801F048FC07EA0500F0
:100AE00028B1A18A0122206901F040FC04E0A18A1A
:100AF0000022206901F03AFC7F10052006F094FBEB
:100B0000A1890022A06801F031FC701CC6B2042E3D
:100B1000DCDBBDE8F0812DE9F0410446884615464E
:100B20004FF40047052006F07FFBA18B0022A0694F
:100B300001F01CFC052006F077FB01212046FFF7A1
:100B4000BEFF41462046FFF78CFF002620E005202F
:100B500006F06AFBA1890122A06801F007FC07EA00
:100B6000050028B1A18A0122206901F0FFFB04E001
:100B7000A18A0022206901F0F9FB7F10052006F010
:100B800053FBA1890022A06801F0F0FB701CC6B2E3
:100B9000102EDCDB052006F047FBA18B0122A069AB
:100BA00001F0E4FBBDE8F0811CB50091ADF8042034
:100BB000DDE90034C0E900341CBD00001CB504466A
:100BC0004FF480421849684600F032F8DDE9000130
:100BD000C4E9000140221549684600F029F8DDE922
:100BE0000001C4E904014FF400420F49684600F0D7
:100BF0001FF8DDE90001C4E9020180220B496846C3
:100C000000F016F8DDE90001C4E90601642006F0F1
:100C10000BFB00228021054801F0A8FB0122910373
:100C2000014801F0A3FB1CBD000C01400010014075
:100C30001CB50091ADF80420DDE90034C0E90034B2
:100C40001CBD70B504460025A18B0122A06901F0EE
:100C50008DFB022006F0E8FAA18B0022A06901F0CA
:100C600085FB012006F0E0FA002616E0A1890122AA
:100C7000A06801F07BFBA18A206901F06BFB0543B2
:100C8000A1890022A06801F071FB0F2E03DA4FF654
:100C9000FF7000EA4505701CC6B2102EE6DB284640
:100CA00070BD00BFFEE700002DE9F04105460E468D
:100CB00014460B493046FFF7BFFA8046601E094ACA
:100CC00052F820104046FFF7B1FA07464FF07E5128
:100CD000FFF7E4FA05EB840141F8040CBDE8F0816C
:100CE00000007A44B40B00202DE9F04105460E4681
:100CF0001446601E084A52F820103046FFF796FA54
:100D000007464FF07E51FFF7C9FA05EB840141F821
:100D1000040CBDE8F0810000B40B002070B505465E
:100D20000C46012C06D1084802F0FEFD074802F0EF
:100D3000FBFD08E0064802F006FE034802F003FE51
:100D4000024802F000FE70BD44090020C4090020E2
:100D50008409002010B50021022003F0E9FE0021E3
:100D6000084603F0E5FE0021032003F0E1FE10BD7C
:100D700010B500221021174801F0F8FA00222021B6
:100D8000144801F0F3FA00224021124801F0EEFA73
:100D9000002280210F4801F0E9FA002204210E48C8
:100DA00001F0E4FA002208210B4801F0DFFA0022EA
:100DB0001021094801F0DAFA00224FF48051064868
:100DC00001F0D4FA00224FF40051034801F0CEFAAA
:100DD00010BD000000080140000C01402DE9F04763
:100DE00005460C4600212846FFF7A0FC3FD260795B
:100DF00001281BD16179491E3E4A52F821003E4923
:100E0000FFF74CFA80462946FFF713FA0646607949
:100E1000401E3A4A52F820104FF07E50FFF73EFA3B
:100E200007463146FFF708FA05465FE06179344826
:100E300003F04DFE81466179491E2E4A52F8210089
:100E40004946FFF72BFA07462946FFF7F2F906460F
:100E50006079401E294A52F820104FF07E50FFF76B
:100E60001DFA80463146FFF7E7F905463EE0607916
:100E700001281BD16179491E1E4A52F821001E49E2
:100E8000FFF70CFA80462946FFF7D3F9064660794A
:100E9000401E1C4A52F820104FF07E50FFF7FEF91A
:100EA00007463146FFF7C8F905461FE06179144847
:100EB00003F00DFE81466179491E0E4A52F8210069
:100EC0004946FFF7EBF907462946FFF7B2F9064610
:100ED0006079401E0B4A52F820104FF07E50FFF709
:100EE000DDF980463146FFF7A7F905462846BDE8FB
:100EF000F0870000B40B002000004C42D80B00200B
:100F000000002041FC0B002010B500F005F800F0B7
:100F10000DF800F015F810BD10B5012202210248AD
:100F200001F024FA10BD0000000C014010B50122B0
:100F30002021024801F01AFA10BD0000000C014007
:100F400010B501220421024801F010FA10BD000082
:100F5000001401402DE9F04F87B000200590049067
:100F60005048407815287DD14E4880780228FAD123
:100F7000FFF7CAFFC82000F070FF4A49C87804F0A4
:100F800025FBC82000F069FF4FF47A71022003F0BE
:100F9000CFFDC82000F061FF4FF0000A28E0424872
:100FA000FFF74FFE0190FFF748FB8346FFF784FBF6
:100FB000804600223D4BFFF756FA064600223C4B86
:100FC000FFF7C3FA00223B4BCDE90201FFF745FAD8
:100FD0000446FFF784FB0590DDE90401FFF7D4F830
:100FE0000490022000F039FF0AF1010000F0FF0A2E
:100FF000BAF10A0FD3DB30490498FFF74FF9069096
:101000002848C2782D480699FFF76EFE2C49022029
:1010100003F08EFDC82000F020FF00200590049012
:1010200082462AE02048FFF70CFE0190FFF705FBFF
:101030008346FFF741FB00221C4BCDE90201FFF77D
:1010400012FA804600221A4BFFF77FFA064600226A
:10105000184BFFF702FA0446FFF741FB0590DDE964
:10106000040100E017E0FFF78FF80490022000F081
:10107000F4FE0AF1010000F0FF0ABAF10A0FD1DB19
:101080000D490498FFF70AF906900648C2780D4802
:101090000699FFF709FEFFF75DFE00F036F807B08E
:1010A000BDE8F08F44050020740B002000000440D0
:1010B000E0FFEF400000F43F00002041D80B00208B
:1010C00018FCFFFFFC0B002010B5024800F05CFB91
:1010D00010BD0000FC0A002010B5024800F054FBCF
:1010E00010BD0000C40A002010B5046863604468A5
:1010F000102C04D10468A2600468E16003E0046875
:10110000A1600468E26010BD704710B500F006F8F9
:1011100000F00EF800F016F810BD000010B5002227
:101120000221024801F022F910BD0000000C01402C
:1011300010B500222021024801F018F910BD00006E
:10114000000C014010B500220421024801F00EF904
:1011500010BD0000001401402DE9F04788B0824620
:101160000C469146E068401CE060218860680844B5
:101170006060BAF82410E06888425ED3304802F01C
:10118000E2FBE068FFF759FA05466068FFF755FA99
:1011900006462946FFF782F8A06099F80500012865
:1011A0001ED1A068FFF788FA07460022254BFFF7FB
:1011B0005AF90022244BCDE90201FFF7C6F90022BB
:1011C000224BCDE90401FFF748F90022204BCDE97D
:1011D0000601FFF7BAF90546FFF781FAA06028E09B
:1011E00099F805101B4803F072FC0546FFF764FAF6
:1011F00007468846A068FFF75FFA0022114BCDE949
:101200000001FFF730F9054600220F4BFFF79DF96B
:1012100000220E4BCDE90201FFF71FF93A46434683
:10122000CDE90401FFF791F9CDE90601FFF757FA7F
:10123000A060002008B0BDE8F0870120FAE70000B8
:101240004409002000000440E0FFEF400000F43FAC
:10125000008049400000204110B5054802F073FBB2
:10126000044802F070FB01200349087010BD000023
:101270008409002044090020F404002000BFFEE798
:101280000021074AD1610749096941F00401054A73
:1012900011611146096941F0400111617047000078
:1012A00038000020002002400021074AD161074990
:1012B000096941F00201054A116111464861096955
:1012C00041F04001116170473800002000200240C9
:1012D0000022054BDA61054A126942F00102034B14
:1012E0001A61018070470000380000200020024091
:1012F0001748C06800F0100028B11648C06940F0D7
:1013000002001449C8611248C06800F0040028B106
:101310001048C06940F001000E49C8610C48C0691E
:1013200000F0010068B10B48C06940F004000949B1
:10133000C86100BF0648C06920F001000449C861C7
:1013400000BF00BF14200249C86000BF7047000002
:10135000002002403800002070B5044601F00CF86F
:10136000054609E0601C38B124B101F005F8401BC6
:10137000A04201D9032070BD1248C06800F00100EE
:101380000028EFD10F48C06800F0200020B100BF56
:1013900020200C49C86000BF0A48C06800F0100057
:1013A00048B90848C06900F0010020B90548C06884
:1013B00000F0040018B1FFF79BFF0120DBE70020DD
:1013C000D9E700000020024030B585B004460D4644
:1013D0000020009001900394281B401CC00A049038
:1013E00000BF694601A800F045FD0028F9D105B00D
:1013F00030BD0146086870472DE9F04106460F46AA
:10140000002400F0F1FD39463046FFF7DDFF0025EE
:1014100017E0002009E02402384901EB8501C0F102
:101420000302895C0C43411CC8B20428F3DB344836
:1014300000EB850122460023022000F07DFD681CA0
:10144000C5B2042DE5DB002518E0002009E02402E8
:101450002C4901EB8501C0F10302895C0C43411C5E
:10146000C8B20428F3DB2648203000EB8501224671
:101470000023022000F060FD681CC5B2092DE4DBEA
:10148000002518E0002009E024021F4901EB850136
:10149000C0F10302895C0C43411CC8B20428F3DB91
:1014A0001748603000EB850122460023022000F03F
:1014B00043FD681CC5B2092DE4DB002518E00020BF
:1014C00009E02402114901EB8501C0F10302895CA6
:1014D0000C43411CC8B20428F3DB0948903000EBF0
:1014E000850122460023022000F026FD681CC5B2BB
:1014F000092DE4DB00F016FDBDE8F081940B00201F
:1015000000100708B40B0020D80B0020FC0B0020B3
:101510002DE9F04106460C46174600250BE0204613
:10152000FFF767FF804606EB8501404605F0BFFDEB
:10153000241D681CC5B2BD42F1DBBDE8F08100008E
:101540002DE9F047044689464FF0000A227851B24F
:10155000606803F045F982466078C8B92249504670
:10156000FFF7DAF82DD221495046FFF7DFF828D2ED
:10157000217848B203F0ECFF01206070484600F08B
:101580006CFC227851B2606803F02AF9824618E0B8
:1015900017495046FFF7CAF804D316495046FFF7DB
:1015A000BBF80ED2217848B203F06CFF00206070C7
:1015B000484600F052FC227851B2606803F010F9FE
:1015C0008246607860B95046FFF776F807464FF0DC
:1015D0003332094BFEF747FF0546FFF780F8824696
:1015E0005046BDE8F087000000005C4300005CC38B
:1015F00000C00F4500C00FC53333244010B504466A
:10160000207810B90920607101E02078607160785D
:10161000E070A0782071607903F0D8FFA07910B154
:10162000FFF77AFC01E0FFF779FDE07910B1FFF7F1
:101630007DFC01E0FFF77CFD207A10B1FFF780FC14
:1016400001E0FFF77FFD10BD10B50378012B69D1D4
:1016500093784370D37C947C43EA04238380D37DC6
:10166000947D43EA0423C380537E147E43EA04231B
:101670008384537C147C43EA0423C384C38C642492
:1016800093FBF4F3C384937E80F82A30D37A947A60
:1016900043EA04231BB20381537B147B43EA0423F4
:1016A0001BB243815379147943EA04231BB2C381EB
:1016B000D379947943EA04231BB20382537A147AD0
:1016C00043EA04231BB24384D37B947B43EA042381
:1016D0001BB20384C389438203898381838C4FF4C3
:1016E0007A746343C48893FBF4F38488E31A0A3B57
:1016F0001BB20385B0F92830002B01DA00230385E3
:10170000937E0B70D37E4B70137F8B70D37803F076
:1017100008038B71D37803F00403CB71D37803F003
:1017200002030B7210BD70B50446002520680068E6
:1017300020F001002168086000F01EFE054613E05D
:1017400000F01AFE401BB0F57A7F0DD9606B40F0B7
:1017500020006063032084F8210000BF002084F88B
:10176000200000BF032070BD2068006800F0010069
:101770000028E5D1012084F8210000BF002084F872
:10178000200000BF00BFEEE710B50446F84920680E
:10179000884255D9F7480068F54A783A216891425D
:1017A00001D108214AE0F24A643A2168914201D10C
:1017B000802143E0EE4A503A2168914201D1C91498
:1017C0003CE0EB4A3C3A2168914202D14FF400419F
:1017D00034E0E74A283A2168914202D14FF40021CF
:1017E0002CE0E34A143A2168914202D14FF40001FF
:1017F00024E0DF4A2168914201D109051EE0DD4A5B
:1018000008322168914201D1082117E0D94A1C32DF
:101810002168914201D1802110E0D64A30322168FE
:10182000914201D1C91409E0D24A4432216891425F
:1018300002D14FF4004101E04FF40021084055E08F
:10184000CB4880380068CA4A783A2168914201D171
:1018500008214AE0C64A643A2168914201D18021B8
:1018600043E0C34A503A2168914201D1C9143CE097
:10187000BF4A3C3A2168914202D14FF4004134E022
:10188000BB4A283A2168914202D14FF400212CE052
:10189000B74A143A2168914202D14FF4000124E082
:1018A000B34A2168914201D109051EE0B14A0832CC
:1018B0002168914201D1082117E0AE4A1C3221680B
:1018C000914201D1802110E0AA4A30322168914230
:1018D00001D1C91409E0A74A44322168914202D1DA
:1018E0004FF4004101E04FF400210840002873D07C
:1018F00020680068C0F3C0000028F8D020680068A5
:1019000020F008002168086099492068884255D96C
:10191000974978392068884201D108204AE09449E3
:1019200064392068884201D1802043E090495039D1
:101930002068884201D1C0143CE08D493C392068C0
:10194000884202D14FF4004034E0894928392068A8
:10195000884202D14FF400202CE0854914392068D8
:10196000884202D14FF4000024E081492068884277
:1019700001D100051EE07F4908312068884201D16D
:10198000082017E07B491C312068884201D1802063
:1019900010E0784930312068884201D1C01409E054
:1019A000744944312068884202D14FF4004001E07C
:1019B0004FF400206F49091D086055E06C497839E3
:1019C0002068884201D108204BE0694964392068C9
:1019D000884202D1802044E057E0654950392068B0
:1019E000884201D1C0143CE061493C3920688842FA
:1019F00002D14FF4004034E05D4928392068884224
:101A000002D14FF400202CE0594914392068884253
:101A100002D14FF4000024E055492068884201D1EA
:101A200000051EE0534908312068884201D1082092
:101A300017E050491C312068884201D1802010E015
:101A40004C4930312068884201D1C01409E049492D
:101A500044312068884202D14FF4004001E04FF445
:101A60000020434980394860606B40F001006063AA
:101A7000042084F8210000BF002084F8200000BF6B
:101A8000206B10B12046216B884739492068884275
:101A900055D938480068364A783A2168914201D1D0
:101AA00002214AE0324A643A2168914201D1202160
:101AB00043E02F4A503A2168914201D149153CE058
:101AC0002B4A3C3A2168914202D14FF4005134E054
:101AD000274A283A2168914202D14FF400312CE084
:101AE000234A143A2168914202D14FF4001124E0B4
:101AF0001F4A2168914201D189041EE01D4A083223
:101B00002168914201D1022117E01A4A1C32216852
:101B1000914201D1202110E0164A303221689142D1
:101B200001D1491509E0134A44322168914202D19A
:101B30004FF4005101E04FF40031084059E00C48E7
:101B4000803800680A4A783A2168914201D102211E
:101B50004EE0074A643A2168914201D1202147E0D2
:101B6000034A503A2168914206D1491540E00000ED
:101B70008000024000040240864A2168914202D15E
:101B80004FF4005134E0834A14322168914202D16B
:101B90004FF400312CE07F4A28322168914202D173
:101BA0004FF4001124E07B4A3C322168914201D17C
:101BB00089041DE0784A2168914201D1022117E091
:101BC000754A14322168914201D1202110E0724AF5
:101BD00028322168914201D1491509E06E4A3C3210
:101BE0002168914202D14FF4005101E04FF40031DD
:101BF0000840002838D020680068C0F3400098B33F
:101C00002068006800F0200028B92068006820F0F3
:101C10000200216808605F493C312068884255D93C
:101C20005C493C392068884201D102204AE0594988
:101C300028392068884201D1202043E055491439D1
:101C40002068884201D140153CE052492068884212
:101C500002D14FF4005035E04E49143120688842DB
:101C600003D14FF400302DE093E04A492831206839
:101C7000884202D14FF4001024E046493C312068EC
:101C8000884201D180041DE043492068884201D187
:101C9000022017E0404914312068884201D12020F9
:101CA00010E03D4928312068884201D1401509E003
:101CB00039493C312068884202D14FF4005001E09C
:101CC0004FF400303449091F086053E031493C3972
:101CD0002068884201D1022049E02E492839206835
:101CE000884201D1202042E02A49143920688842E4
:101CF00001D140153BE027492068884202D14FF4CA
:101D0000005034E0234914312068884202D14FF456
:101D100000302CE01F4928312068884202D14FF45E
:101D2000001024E01B493C312068884201D1800426
:101D30001DE019492068884201D1022017E01649A8
:101D400014312068884201D1202010E01249283146
:101D50002068884201D1401509E00F493C312068D4
:101D6000884202D14FF4005001E04FF4003009499D
:101D700044394860606B6063012084F8210000BF33
:101D8000002084F8200000BFA06A10B12046A16A9C
:101D9000884710BD4400024008040240014600226A
:101DA00009B90120704791F8210010B9002081F88D
:101DB0002000022081F821000868026843F6F070D4
:101DC0008243D1E901031843CB6818430B691843D8
:101DD0004B6918438B691843CB6918430243086861
:101DE000026000204863012081F821000020D9E72B
:101DF0002DE9F04104460D4616461F4600BF94F8F3
:101E00002000012802D10220BDE8F081012084F8E1
:101E1000200000BF022084F821002068006820F024
:101E20000100216808603B46324629462046FFF7FC
:101E30005BF92068006840F00200216808602068B3
:101E4000006840F00800216808602068006840F0E1
:101E50000100216808600020D6E731B5002400F0B9
:101E60008BFA044600BF00F087FA001B00998842F5
:101E7000F9D338BD2DE9F04104460E46012700256F
:101E800000BF2648007E012802D10220BDE8F08173
:101E900001202249087600BF2068022813D14CF2A5
:101EA0005030FFF759FA90BB0120FFF7E9F94CF2E7
:101EB0005030FFF751FA07461948006920F0040036
:101EC0001749086123E04CF25030FFF745FAF0B9AA
:101ED0004FF0FF303060A56812E02846FFF7E4F9C4
:101EE0004CF25030FFF738FA07460D48006920F0F1
:101EF00002000B4908610FB1356007E005F5006588
:101F0000D4E9021001EBC020A842E6D800BF00BF10
:101F100000200249087600BF3846B7E738000020A5
:101F2000002002400348006940F080000149086138
:101F300000207047002002402DE9FE4F05468B46E9
:101F400017469846012600240020029000BF24482E
:101F5000007E012802D10220BDE8FE8F0120204929
:101F6000087600BF4CF25030FFF7F6F9064686BB04
:101F7000012D02D10120029006E0022D02D10220A3
:101F8000029001E00420029000241EE02201B946E4
:101F9000C24648465146FEF7E7F880B2019002205B
:101FA00000FB04B000900199FFF792F94CF2503019
:101FB000FFF7D2F906460B48006920F001000949F5
:101FC000086106B104E0601CC4B202988442DDDB03
:101FD00000BF00BF00200249087600BF3046BBE7C3
:101FE00038000020002002400748006900F080000F
:101FF00028B10648044948600548486001E00120CE
:1020000070470020FCE700000020024023016745E4
:10201000AB89EFCD2DE9F8470246002400200025CA
:102020008446002700237BE14FF0010808FA03F4FF
:10203000D1F8008008EA0400A0427DD1DFF8ECA2CC
:10204000D1F80480A8EB0A09D0453AD014DCB8F1E5
:10205000030F50D009DCB8F1000F31D0B8F1010FF7
:102060001CD0B8F1020F49D120E0B8F1110F18D0FF
:10207000B8F1120F42D11EE0B9F5881F25D006DC59
:10208000B9F5803F20D0B9F5801F37D11AE0B9F5F6
:10209000001F18D0B9F5041F30D117E0D1F80CC0DB
:1020A0002DE0D1F80C8008F1040C28E0D1F80C8068
:1020B00008F1080C23E0D1F80C8008F10C0C1EE0AC
:1020C00000BF00BF00BF00BF00BF00BFD1F8088045
:1020D000B8F1000F02D14FF0040C0BE0D1F80880EA
:1020E000B8F1010F03D14FF0080C146102E04FF07A
:1020F000080C546103E04FF0000C00E000BF00BF8B
:10210000FF2801D8904601E002F104084646FF2866
:1021100002D84FEA830803E0A3F108084FEA8808D1
:102120004746D6F800804FF00F0909FA07F928EA68
:1021300009080CFA07F900E07AE048EA0908C6F84D
:102140000080D1F8048008F08058B8F1805F6FD12A
:1021500000BFDFF8DC81D8F8188048F00108DFF80C
:10216000D091C9F81880C846D8F8188008F001083E
:10217000CDF8008000BF00BF4FEAB9384FEA93099D
:1021800058F829504FEA83784FEA18794FF00F0832
:1021900008FA09F825EA0805DFF89881424502D1D6
:1021A0004FF0000824E0DFF89081424502D14FF063
:1021B00001081DE0DFF88481424502D14FF002089A
:1021C00016E0DFF87C81424502D14FF003080FE0B2
:1021D000DFF87081424502D14FF0040808E0DFF8D3
:1021E0006881424502D14FF0050801E04FF0060832
:1021F0004FEA83794FEA197908FA09F848EA0505A0
:10220000DFF848814FEA930948F82950D1F8048053
:1022100008F48038B8F5803F0BD1DFF83481D8F866
:10222000008048EA0008DFF82891C9F800800AE039
:1022300075E0DFF81C81D8F8008028EA0008DFF894
:102240001091C9F80080D1F8048008F40038B8F57E
:10225000003F0ED1DFF8F88008F10408D8F80080BC
:1022600048EA0008DFF8E89009F10409C9F800809D
:102270000DE0DFF8DC8008F10408D8F8008028EAD7
:102280000008DFF8CC9009F10409C9F80080D1F802
:10229000048008F48018B8F5801F0ED1DFF8B080F4
:1022A00008F10808D8F8008048EA0008DFF8A09094
:1022B00009F10809C9F800800DE0DFF8948008F101
:1022C0000808D8F8008028EA0008DFF8849009F1AF
:1022D0000809C9F80080D1F8048008F40018B8F59E
:1022E000001F0ED1DFF8688008F10C08D8F80080D4
:1022F00048EA0008DFF8589009F10C09C9F8008095
:102300000DE0DFF84C8008F10C08D8F8008028EACE
:102310000008DFF83C9009F10C09C9F800805B1C4B
:10232000102BFFF481AEBDE8F8870000000011100B
:102330000010024000080140000C01400010014064
:102340000014014000180140001C01400800014039
:1023500000040140024693680B400BB1012000E0ED
:1023600000207047C2684A40C26070470AB10161EC
:1023700001E00B04036170470148006870470000EA
:102380000000002002480068401C014908607047B6
:102390000000002010B50848006840F01000064911
:1023A0000860032000F0C8F8002000F007F800F0F3
:1023B00017F8002010BD00000020024070B5044650
:1023C00000F010FD4FF47A71B0FBF1F5284601F0F2
:1023D000E6F900222146501E00F06FF8002070BD83
:1023E00008B500BF2548806940F001002349886195
:1023F0000846806900F00100009000BF00BF032084
:1024000000F09AF8002211466FF00B0000F055F82A
:10241000002211466FF00A0000F04FF8002211462A
:102420006FF0090000F049F800221146501F00F03B
:1024300044F800221146101F00F03FF80022114618
:10244000901E00F03AF800221146501E00F035F8B8
:102450000B48406820F0E060094948600846406841
:1024600020F0E06040F0807048600846406820F04E
:10247000E06040F00070486008BD000000100240BD
:102480000000014000BF00F01F0201219140034AFB
:10249000430942F8231000BF7047000080E100E0CC
:1024A00000BF00F01F02012191404209920002F199
:1024B000E022C2F8001100BF70472DE9F05F8046AE
:1024C0000D461646002702F017FB074639462A46F6
:1024D000334601F00700C0F1070ABAF1040F02D930
:1024E0004FF0040A01E0C0F1070AD14600F1040AE6
:1024F000BAF1070F02D24FF0000A01E0A0F1030A7F
:10250000D4464FF0010A0AFA09FAAAF1010A0AEAC6
:10251000020A0AFA0CFA4FF0010B0BFA0CFBABF1B2
:10252000010B0BEA030B4AEA0B042146404602F07A
:10253000EBFABDE8F09F000000BF00F00702064B79
:1025400019684FF6FF031940044B0B4343EA02217D
:10255000014B196000BF70470CED00E00000FA0568
:1025600070B504460D4604F1280101EB45114A6996
:102570002946D4F81C0403F0D9FD70BD70B504469B
:102580000D4604F5027101EB45114A692946D4F85C
:102590001C0403F038FE70BD70B504460D460026DD
:1025A00005F08000802806D105F07F0104F12800A5
:1025B00000EB411603E004F5027000EB4516002025
:1025C000B07005F07F003070C5F3C010707000BFB0
:1025D00094F8E803012801D1022070BD012084F89D
:1025E000E80300BF3146206804F0E1FA00BF002094
:1025F00084F8E80300BF00BFEFE72DE9F047044689
:102600000D46174698464FF00009002605F0800059
:10261000802806D105F07F0104F1280000EB411667
:1026200005E005F07F0104F5027000EB411605F0AE
:102630007F00307005F08000C0097070376186F847
:10264000038000BF94F8E803012802D10220BDE80E
:10265000F087012084F8E80300BF3146206804F0C9
:10266000CEF800BF002084F8E80300BF4846EEE73C
:102670002DE9F04104460E4617469846002506F01F
:102680007F0104F5027000EB41156F61C5F81880F9
:102690000020E861687006F07F00287000BF94F8A1
:1026A000E803012802D10220BDE8F081012084F86E
:1026B000E80300BF06F07F0020B92946206804F037
:1026C00013FB03E02946206804F00EFB00BF002046
:1026D00084F8E80300BF00BFE6E770B504460D4686
:1026E000002605F08000802806D105F07F0104F166
:1026F000280000EB411603E004F5027000EB4516DC
:102700000120B07005F07F003070C5F3C01070700C
:1027100000BF94F8E803012801D1022070BD012018
:1027200084F8E80300BF3146206804F09AFA05F007
:102730007F0020B904F57B71206804F035FA00BFF2
:10274000002084F8E80300BF00BFE7E72DE9F0416F
:1027500004460E4617469846002506F07F0104F110
:10276000280000EB41156F61C5F818800020E86172
:102770000120687006F07F00287000BF94F8E8031D
:10278000012802D10220BDE8F081012084F8E8038D
:1027900000BF06F07F0020B92946206804F0A4FAA3
:1027A00003E02946206804F09FFA00BF002084F867
:1027B000E80300BF00BFE6E770B5044600252068C7
:1027C00004F034FC00F40040B0F5004F02D1204684
:1027D00002F0D0FB206804F029FC00F48060B0F522
:1027E000806F0ED12068B0F8440020F4806021682A
:1027F000A1F84400204600F091F80021204600F0A6
:10280000B0F8206804F012FC00F48040B0F5804F6E
:1028100007D12068B0F8440020F480402168A1F876
:102820004400206804F002FC00F40050B0F5005FA2
:1028300007D12068B0F8440020F400502168A1F8C6
:102840004400206804F0F2FB00F48050B0F5805F93
:1028500017D12068B0F8400020F004002168A1F8EA
:1028600040004FF43D452068A0F84050204600F05D
:102870006AF82068B0F8440020F480502168A1F87C
:102880004400206804F0D2FB00F40060B0F5006F53
:1028900020D12068B0F8440020F400602168A1F83D
:1028A00044002068B0F8400040F008002168A1F81A
:1028B00040002068B0F8400040F004002168A1F812
:1028C0004000206804F0B2FBC0F3003010B920468D
:1028D00000F06CF8206804F0A9FB00F40070B0F57B
:1028E000007F0AD12068B0F8440020F4007021680D
:1028F000A1F84400204600F02DF8206804F096FB73
:1029000000F48070B0F5807F07D12068B0F84400F3
:1029100020F480702168A1F8440070BD70B50446B1
:102920000125A068022801D100BF01E0012500BFF8
:1029300000BF2946D4F81C0403F01AFDD4F81C0487
:1029400003F0DCFC70BD10B50446D4F81C0403F0A1
:10295000F7FC10BD10B50446D4F81C0403F0F7FCD6
:1029600010BD70B504460D4600BF94F8E803012879
:1029700001D1022070BD012084F8E80300BF84F873
:1029800024502946206804F06AFB00BF002084F828
:10299000E80300BF00BFEDE710B5044604F57B7106
:1029A000D4F81C0403F0F2FC10BD000010B504467E
:1029B000D4F81C0403F02BFDA06928B1034800687B
:1029C00040F006000149086010BD000010ED00E075
:1029D000F8B5044600260025207800F00100002804
:1029E00077D000BF5648C06940F080505449C86154
:1029F0000846C06900F08050009000BF00BF5148F9
:102A0000006840F480704F490860FFF7B5FC064647
:102A100006E0FFF7B1FC801B642801D90320F8BD54
:102A20004848006800F480700028F2D04448006AEA
:102A300000F44075002D5ED0A08800F44070A842DC
:102A400059D03F48006A20F440750120010491FAF2
:102A5000A1F1B1FA81F13C4A02EB8101C1F8000415
:102A600000204FF4803191FAA1F1B1FA81F102EB2B
:102A70008101C1F800043248056205F0010048B345
:102A8000FFF77AFC064608E0FFF776FC801B41F270
:102A90008831884201D90320C1E74020022191FA00
:102AA000A1F1B1FA81F108430121B1EB601F02D11C
:102AB0002348006811E04020022191FAA1F1B1FA07
:102AC00081F108430221B1EB601F04D11C48006A68
:102AD00003E018E00FE01A48406A4021022292FA0F
:102AE000A2F2B2FA82F2114301F01F0201219140D9
:102AF00008400028C8D01248006A20F4407061687D
:102B000008430F490862207800F00200022807D12C
:102B10000B48406820F44040A168084308494860D9
:102B2000207800F01000102807D10548406820F4F4
:102B30008000616908430249486000206FE7000097
:102B400000100240007000400000424270B5044690
:102B50000D4600269F48006800F00700A8420ED2EC
:102B60009C48006820F0070028439A4908600846FE
:102B7000006800F00700A84201D0012070BD207855
:102B800000F00200022807D19348406820F0F000CE
:102B9000A168084390494860207800F001000028AF
:102BA0007CD0606801282DD12020010391FAA1F189
:102BB000B1FA81F108430121B1EB601F02D18648CF
:102BC00000680FE02020010391FAA1F1B1FA81F130
:102BD00008430221B1EB601F02D17F48006A01E087
:102BE0007D48406A20210A0392FAA2F2B2FA82F2E8
:102BF000114301F01F02012191400840002860D1DB
:102C00000120BBE7606802282CD12020010591FA41
:102C1000A1F1B1FA81F108430121B1EB601F02D1AA
:102C20006D4800680FE02020010591FAA1F1B1FA8A
:102C300081F108430221B1EB601F02D16648006AAE
:102C400001E06548406A20210A0592FAA2F2B2FA30
:102C500082F2114301F01F0201219140084078BB2C
:102C600001208BE72020022191FAA1F1B1FA81F134
:102C700008430121B1EB601F02D15748006810E002
:102C80002020022191FAA1F1B1FA81F10843022139
:102C9000B1EB601F03D15048006A02E054E04E4897
:102CA000406A2021022292FAA2F2B2FA82F2114381
:102CB00001F01F0201219140084008B901205DE7A1
:102CC000FFE74548406820F0030061680843424937
:102CD0004860FFF751FB06466068012810D108E004
:102CE000FFF74AFB801B41F28831884201D903205B
:102CF00044E73948406800F00C000428F0D123E094
:102D00006068022810D108E0FFF736FB801B41F213
:102D10008831884201D9032030E72F48406800F00D
:102D20000C000828F0D10FE008E0FFF725FB801B1E
:102D300041F28831884201D903201FE726484068C4
:102D400000F00C000028F0D12248006800F00700D5
:102D5000A8420ED91F48006820F0070028431D49EB
:102D600008600846006800F00700A84201D0012072
:102D700004E7207800F00400042807D116484068D2
:102D800020F4E060E168084313494860207800F0CF
:102D90000800082808D11048406820F460502169D4
:102DA00040EAC1000C49486000F04EF80A49496801
:102DB00001F0F001F02292FAA2F2B2FA82F2D140CE
:102DC000064A515CC840064908600020FFF7F6FA41
:102DD0000020D3E600200240001002405475000895
:102DE0000400002001480068704700000400002033
:102DF00000B5FFF7F7FF0749496801F4E0614FF4B8
:102E0000E06292FAA2F2B2FA82F2D140024A515C36
:102E1000C84000BD001002406475000800B5FFF70F
:102E2000E1FF0749496801F460514FF4605292FA9A
:102E3000A2F2B2FA82F2D140024A515CC84000BD0F
:102E40000010024064750008F0B585B00FF28C0CDC
:102E50009CE8E01001A8A0E8E01024A52D680095EA
:102E600000210024002200230020214D696801F088
:102E70000C056DB3042D02D0082D28D101E01D48AA
:102E800028E001F470154FF4701696FAA6F6B6FA1B
:102E900086F6F54001AE735D01F4803595B1144DB1
:102EA0006D6805F400354FF4003696FAA6F6B6FACA
:102EB00086F6F5401DF805400E4DB5FBF4F505FB13
:102EC00003F202E00C4D03FB05F2104602E000BFE6
:102ED000084800BF00BF05B0F0BD000002030405B4
:102EE000060708090A0B0C0D0E0F10100102000056
:102EF0000010024000127A0000093D0038B5044677
:102F00000025207800F0010000287CD0F8484068B7
:102F100000F00C0004280CD0F548406800F00C00CC
:102F2000082837D1F248406800F48030B0F5803F7F
:102F300030D12020010391FAA1F1B1FA81F10843C7
:102F40000121B1EB601F02D1E94800680FE02020A9
:102F5000010391FAA1F1B1FA81F108430221B1EB29
:102F6000601F02D1E248006A01E0E148406A202186
:102F70000A0392FAA2F2B2FA82F2114301F01F029E
:102F80000121914008400028BFD0606800283AD154
:102F9000012038BD00BF6068B0F5803F06D1D4483D
:102FA000006840F48030D249086028E0606858B971
:102FB000CF48006820F48030CD490860084600689A
:102FC00020F4802008601AE06068B0F5A02F0BD1D3
:102FD000C748006840F48020C5490860084600687A
:102FE00040F4803008600AE0C148006820F4803076
:102FF000BF4908600846006820F48020086000BFD0
:103000006068C8B300E06FE0FFF7B6F9054606E078
:10301000FFF7B2F9401B642801D90320B9E720204B
:10302000010391FAA1F1B1FA81F108430121B1EB59
:10303000601F02D1AE4800680FE02020010391FA22
:10304000A1F1B1FA81F108430221B1EB601F02D175
:10305000A748006A01E0A648406A20210A0392FAC4
:10306000A2F2B2FA82F2114301F01F020121914053
:1030700008400028CCD037E0FFE7FFF77DF9054690
:1030800006E0FFF779F9401B642801D9032080E7A7
:103090002020010391FAA1F1B1FA81F10843012145
:1030A000B1EB601F02D1924800680FE020200103BD
:1030B00091FAA1F1B1FA81F108430221B1EB601F4D
:1030C00002D18B48006A01E08948406A20210A0346
:1030D00092FAA2F2B2FA82F2114301F01F02012128
:1030E000914008400028CCD1207800F0020002284E
:1030F0004ED17F48406800F00C0050B17C484068D9
:1031000000F00C00082844D17948406800F4803071
:1031100078BB2020022191FAA1F1B1FA81F1084394
:103120000121B1EB601F02D1714800680FE020203F
:10313000022191FAA1F1B1FA81F108430221B1EB28
:10314000601F02D16A48006A01E06948406A202194
:10315000022292FAA2F2B2FA82F2114301F01F02A5
:1031600001219140084028B12069012802D00120A6
:103170000FE70EE05E48006820F0F800F82292FAAF
:10318000A2F2B2FA82F2616991400843584908609C
:1031900091E02069F0B3012090FAA0F1B1FA81F139
:1031A000544A42F82100FFF7E7F8054606E0FFF72A
:1031B000E3F8401B022801D90320EAE6202002217F
:1031C00091FAA1F1B1FA81F108430121B1EB601F3D
:1031D00002D1474800680FE02020022191FAA1F1B6
:1031E000B1FA81F108430221B1EB601F02D14048DE
:1031F000006A01E03E48406A2021022292FAA2F2CF
:10320000B2FA82F2114301F01F02012191400840FD
:10321000002800E00FE0CAD03548006820F0F80030
:10322000F82292FAA2F2B2FA82F26169914008435E
:103230002F4908603FE00020012191FAA1F1B1FA85
:1032400081F12C4A42F82100FFF796F8054606E086
:10325000FFF792F8401B022801D9032099E62020AD
:10326000022191FAA1F1B1FA81F108430121B1EBF8
:10327000601F02D11E4800680FE02020022191FA51
:10328000A1F1B1FA81F108430221B1EB601F02D133
:103290001748006A01E01648406A2021022292FA8B
:1032A000A2F2B2FA82F2114301F01F020121914011
:1032B00008400028CCD1207800F0080008284BD125
:1032C000A069A8B3012191FAA1F0B0FA80F0094AEF
:1032D00002EB8000C0F88014FFF74EF805460BE0C3
:1032E000FFF74AF8401B022806D9032051E60000E8
:1032F00000100240000042426020022191FAA1F138
:10330000B1FA81F108430121B1EB601F02D1F94804
:10331000006810E06020022191FAA1F1B1FA81F178
:1033200008430221B1EB601F03D1F248006A02E0BA
:1033300013E0F048406A6021022292FAA2F2B2FA47
:1033400082F2114301F01F02012191400840002840
:10335000C6D00120FEF781FD41E00020012191FA55
:10336000A1F1B1FA81F1E44A02EB8101C1F88004D4
:10337000FFF702F8054606E0FEF7FEFF401B0228B5
:1033800001D9032005E66020022191FAA1F1B1FAEA
:1033900081F108430121B1EB601F02D1D5480068DB
:1033A0000FE06020022191FAA1F1B1FA81F1084306
:1033B0000221B1EB601F02D1CE48006A01E0CD4886
:1033C000406A6021022292FAA2F2B2FA82F211431A
:1033D00001F01F020121914008400028CCD1207843
:1033E00000F00400042875D100BFC248C06940F055
:1033F0008050C049C8610846C06900F08050009004
:1034000000BF00BFBD48006840F48070BB49086041
:10341000FEF7B2FF054606E0FEF7AEFF401B64284C
:1034200001D90320B5E5B548006800F48070002894
:10343000F2D000BFE068012806D1AE48006A40F033
:103440000100AC49086227E0E06858B9A948006A61
:1034500020F00100A74908620846006A20F0040035
:10346000086219E0E06805280BD1A248006A40F024
:103470000400A04908620846006A40F001000862A2
:103480000AE09C48006A20F001009A490862084658
:10349000006A20F00400086200BFE068D0B3FEF7C5
:1034A0006BFF054608E0FEF767FF401B41F28831DD
:1034B000884201D903206CE54020022191FAA1F154
:1034C000B1FA81F108430121B1EB601F03D18948B2
:1034D000006810E058E04020022191FAA1F1B1FA11
:1034E00081F108430221B1EB601F02D18148006ADB
:1034F00001E08048406A4021022292FAA2F2B2FA28
:1035000082F2114301F01F0201219140084000287E
:10351000C9D039E0FFE7FEF72FFF054608E0FEF7C8
:103520002BFF401B41F28831884201D9032030E54E
:103530004020022191FAA1F1B1FA81F10843012161
:10354000B1EB601F02D16B4800680FE04020022100
:1035500091FAA1F1B1FA81F108430221B1EB601FA8
:1035600002D16448006A01E06248406A40210222B8
:1035700092FAA2F2B2FA82F2114301F01F02012183
:10358000914008400028CAD1E069002873D059480A
:10359000406800F00C0008286ED0E06902286CD169
:1035A00000204FF0807191FAA1F1B1FA81F1524AF5
:1035B00042F82100FEF7E0FE054606E0FEF7DCFEDD
:1035C000401B022801D90320E3E42020010591FAE1
:1035D000A1F1B1FA81F108430121B1EB601F02D1E1
:1035E000444800680FE02020010591FAA1F1B1FAEA
:1035F00081F108430221B1EB601F02D13D48006A0E
:1036000001E03C48406A20210A0592FAA2F2B2FA8F
:1036100082F2114301F01F0201219140084000286D
:10362000CCD1206AB0F5803F07D13248406820F401
:103630000030A16808432F494860D4E908010843D5
:103640002C49496821F4741108432A494860012132
:10365000080690FAA0F0B0FA80F0274A42F820104D
:10366000FEF78AFE054609E0FEF786FE401B0228AB
:1036700004D903208DE479E076E02CE020200105D8
:1036800091FAA1F1B1FA81F108430121B1EB601F78
:1036900002D1184800680FE02020010591FAA1F13D
:1036A000B1FA81F108430221B1EB601F02D1114848
:1036B000006A01E00F48406A20210A0592FAA2F24E
:1036C000B2FA82F2114301F01F0201219140084039
:1036D0000028C9D04AE000204FF0807191FAA1F192
:1036E000B1FA81F1044A42F82100FEF745FE054691
:1036F0000DE0000000100240000042420070004057
:10370000FEF73AFE401B022801D9032041E42020A5
:10371000010591FAA1F1B1FA81F108430121B1EB60
:10372000601F02D1124800680FE02020010591FAC5
:10373000A1F1B1FA81F108430221B1EB601F02D17E
:103740000B48006A01E00A48406A20210A0592FA03
:10375000A2F2B2FA82F2114301F01F02012191405C
:1037600008400028CCD101E0012012E4002010E440
:1037700000100240042808D14FF0E021096941F00F
:1037800004014FF0E022116107E04FF0E0210969E8
:1037900021F004014FF0E02211617047704770B5CD
:1037A00004462546681EB0F1807F01D301200FE05A
:1037B000681E4FF0E02148610F214FF0FF3001F00B
:1037C000A3F900204FF0E021886107200861002064
:1037D00070BD10B5FFF7E2FF10BD7047704702469D
:1037E00000BF92F83C00012801D10220704701205F
:1037F00082F83C0000BF022082F83D00106840685B
:1038000020F0700013685860106840680B68184317
:10381000136858601068806820F080001368986012
:10382000106880684B68184313689860012082F81C
:103830003D0000BF002082F83C0000BF00BFD5E77C
:1038400010B504460CB9012010BD94F83D0028B90C
:10385000002084F83C00204600F00CF8022084F898
:103860003D00211D206802F00FF8012084F83D0082
:103870000020E9E738B504462068B0F1804F16D142
:1038800000BF2648C06940F001002449C8610846CD
:10389000C06900F00100009000BF00BF0022114687
:1038A0001C20FEF70AFE1C20FEF7FAFD34E01C493E
:1038B0002068884216D100BF1848C06940F0020055
:1038C0001649C8610846C06900F00200009000BFB8
:1038D00000BF002201211D20FEF7EFFD1D20FEF795
:1038E000DFFD19E00F492068884215D100BF0B4861
:1038F000C06940F004000949C8610846C06900F089
:103900000400009000BF00BF002204211E20FEF72B
:10391000D4FD1E20FEF7C4FD38BD0000001002409B
:10392000000400400008004001460868C06840F0FC
:1039300001000A68D0600868006840F001000A6869
:1039400010600020704701460868C06820F0010040
:103950000A68D06000BF0868006A41F21112104086
:1039600050B90868006A9210104028B908680068C9
:1039700020F001000A68106000BF002070472DE9A8
:10398000F04104460D46002600BF94F83C00012893
:1039900002D10220BDE8F081012084F83C0000BF84
:1039A000022084F83D002068866826F0770626F419
:1039B0007F4620688660286850283BD00CDC202891
:1039C00060D004DC002853D0102865D155E03028A1
:1039D0005DD0402860D141E0602835D070280DD0FE
:1039E000B0F5805F03D0B0F5005F55D115E02068D9
:1039F000806820F00700216888604EE0D5E9021356
:103A00006A68206801F08CFF2068866826F07706D7
:103A100046F07706206886603FE0D5E902136A68C1
:103A2000206801F07DFF2068806840F480402168B4
:103A3000886032E0EA686968206801F087FF5021F9
:103A4000206801F079FF28E0EA686968206801F0E1
:103A500092FF6021206801F06FFF1EE0EA6869684C
:103A6000206801F073FF4021206801F065FF14E039
:103A70000021206801F060FF0FE01021206801F0B4
:103A80005BFF0AE02021206801F056FF05E03021AD
:103A9000206801F051FF00E000BF00BF012084F862
:103AA0003D0000BF002084F83C0000BF00BF71E76C
:103AB000704710B5044620680069C0F34000D8B1D3
:103AC0002068C068C0F34000B0B16FF00200216808
:103AD0000861012020772068806900F0030018B198
:103AE0002046FFF7E5FF05E0204600F0ADF8204650
:103AF00000F0ABF80020207720680069C0F3800058
:103B0000D8B12068C068C0F38000B0B16FF0040085
:103B100021680861022020772068806900F44070E5
:103B200018B12046FFF7C4FF05E0204600F08CF8EE
:103B3000204600F08AF80020207720680069C0F352
:103B4000C000D8B12068C068C0F3C000B0B16FF049
:103B5000080021680861042020772068C06900F00F
:103B6000030018B12046FFF7A3FF05E0204600F050
:103B70006BF8204600F069F8002020772068006983
:103B8000C0F30010D8B12068C068C0F30010B0B115
:103B90006FF0100021680861082020772068C06954
:103BA00000F4407018B12046FFF782FF05E0204680
:103BB00000F04AF8204600F048F8002020772068FE
:103BC000006900F0010058B12068C06800F00100F1
:103BD00030B16FF0010021680861204600F036F82E
:103BE00020680069C0F3C01058B12068C068C0F3F5
:103BF000C01030B16FF08000216808612046FFF7E7
:103C0000ECFD20680069C0F3801058B12068C068DE
:103C1000C0F3801030B16FF0400021680861204689
:103C200000F082F820680069C0F3401058B12068A5
:103C3000C068C0F3401030B16FF020002168086107
:103C40002046FFF7CBFD10BD7047704710B5044606
:103C50002D4920680968884208D12C48FCF7F1FFFB
:103C60002B49088000202B4908704BE02A49206826
:103C70000968884220D129484078012803D0274884
:103C80004078032802D100F0D7FF3BE0234840787A
:103C9000022802D101F054F834E02048407804288A
:103CA00007D01E484078052803D01C4840780628D5
:103CB00028D101F029FD25E01949206809688842CA
:103CC00020D118480088401C00B2164908801348CB
:103CD000C08CB1F90010884214DC1148FFF733FEA4
:103CE0000948FFF730FE01200A490870084800F033
:103CF0007BFA4FF0FF300B4908800748FFF714FEAE
:103D000001F002FD10BD000044090020740B0020EA
:103D1000240500200B00002084090020F40400206A
:103D2000C40900200E000020704710B5044620682A
:103D3000406920F0C00021684861206B10B1206B01
:103D4000FDF7F1FC606B10B1606BFDF7ECFC01203E
:103D500084F83900002010BD704710B504460CB936
:103D6000012010BDA06900B100E000BF94F8390047
:103D700028B9002084F83800204600F025F80220F9
:103D800084F839002068C06820F400502168C860B9
:103D9000204601F059FE2068006920F49040216817
:103DA00008612068406920F02A0021684861206885
:103DB000C06840F400502168C8600020E063012022
:103DC00084F839000020CCE710B586B004463249AB
:103DD000206888425ED100BF3048806940F480404E
:103DE0002E4988610846806900F48040019000BF38
:103DF00000BF48150290022003900320059002A9FD
:103E00002748FEF707F94FF48060029000200390E6
:103E1000049002A92248FEF7FDF8224822490860D2
:103E2000102048600021204881608021C16000216D
:103E30000161416181614FF44051C161FDF7AEFF05
:103E400008B1FDF71BFA00BF17482063446200BFAA
:103E500014481430154908600020486000211348B8
:103E600081608021C1600021016141618161C16186
:103E7000FDF794FF08B1FDF701FA00BF0B4860633E
:103E8000446200BF002205212520FEF716FB2520F5
:103E9000FEF706FB06B010BD0038014000100240DE
:103EA0000008014044000240FC0A0020C40A00202F
:103EB000F7B504461546002794F83970012F01D054
:103EC000122F3CD1019800B10DB90120FEBD00BFF9
:103ED00094F83800012801D10220F7E7012084F886
:103EE000380000BF0198A062A5850020E06394F827
:103EF0003900122803D1322084F8390002E0222050
:103F000084F839000F48616B88620F48616BC862A2
:103F10000E48616B086301AE32682368191D2B4699
:103F2000606BFDF765FF2068406940F04000216844
:103F3000486100BF002084F8380000BFC6E70220B7
:103F4000C4E70000C5590008035A0008A359000837
:103F5000704770472DE9F04704460D4616469946CE
:103F60004FF0000894F83980B8F1010F02D0B8F191
:103F7000220F65D105B116B90120BDE8F08700BF59
:103F800094F83800012801D10220F6E7012084F8D6
:103F9000380000BF0020E06394F83900222803D1E4
:103FA000322084F8390002E0122084F83900A68417
:103FB000E68428E0E08C401EE084A068B0F5805FD5
:103FC00014D14B4600228021204601F021FE08B189
:103FD0000320D2E72F463888C0F3080021684860E4
:103FE000206908B9AD1C0EE06D1C0CE04B460022A8
:103FF0008021204601F00CFE08B10320BDE715F832
:10400000010B21684860E08C0028D3DC4B4600227D
:104010004021204601F0FCFD08B10320ADE794F8F3
:104020003900322803D1222084F8390002E001202F
:1040300084F8390000BF002084F8380000BF9CE7F6
:1040400002209AE7F7B504461546002794F8397020
:10405000012F01D0222F3BD1019800B10DB90120D1
:10406000FEBD00BF94F83800012801D10220F7E717
:10407000012084F8380000BF01982062A584E584FF
:104080000020E06394F83900222803D1322084F81C
:10409000390002E0122084F839000E48216B886252
:1040A00001AE23681A1D31682B46206BFDF7A0FE78
:1040B0006FF04000216808602068406940F080008F
:1040C0002168486100BF002084F8380000BFC7E7BE
:1040D0000220C5E7115A0008704700BFFEE7000044
:1040E00010B5FEF757F901F027FB00F0A9F800F032
:1040F00085F800F015FA002240212248FEF736F933
:1041000000224FF480712048FEF730F91F48006804
:10411000C06840F040001D490968C8601B4800683D
:10412000C06820F0800019490968C8601748006815
:10413000C06840F0100015490968C8606FF0400081
:10414000124909680860482003F064F8002110480B
:10415000FCF714FC01210F48FCF710FC0E48FCF79B
:104160002DFD00F089FC4FF4FA60FDF776FE012288
:1041700011020448FEF7FAF8012251020148FEF745
:10418000F5F810BD000C014000100140040A0020A9
:10419000340B0020540B0020740B002010B5044693
:1041A0000120207004220B490B48FDF7B1F90922C8
:1041B000084920310948FDF7ABF90922054960316A
:1041C0000748FDF7A5F90922024990310548FDF796
:1041D0009FF910BD00100708940B0020B40B0020BD
:1041E000D80B0020FC0B002000214161016181619E
:1041F000816001804160C1607047000008B500BF68
:104200000E48406940F001000C4948610846406989
:1042100000F00100009000BF00BF002211460E20F8
:10422000FEF74BF90E20FEF73BF9002211460F2056
:10423000FEF743F90F20FEF733F908BD00100240E6
:1042400000B585B000BF5C48806940F020005A4945
:1042500088610846806900F02000009000BF00BF20
:1042600000BF0846806940F01000886108468069F8
:1042700000F01000009000BF00BF00BF084680693A
:1042800040F0040088610846806900F00400009056
:1042900000BF00BF00BF0846806940F00800886189
:1042A0000846806900F00800009000BF00BF434846
:1042B000406820F0E06040F0007040494860012212
:1042C00041F61D713E48FEF751F800224EF2820180
:1042D0003B48FEF74BF8012248F201113948FEF73E
:1042E00045F80022F2213748FEF740F800224FF24D
:1042F000BF313548FEF73AF8002204213348FEF773
:1043000035F8002240213048FEF730F84FF61F7094
:104310000190012002900320049001A92848FDF794
:1043200079FE48F2F31001900120029003200490DE
:1043300001A92448FDF76EFE4FF2FF000190012015
:1043400002900320049001A91F48FDF763FE04209A
:104350000190012002900320049001A91B48FDF761
:1043600059FE20200190002002900120039001A915
:104370001348FDF74FFE40200190002002900120DD
:10438000039001A90E48FDF745FE80200190012011
:1043900002900320049001A90948FDF73BFE4FF469
:1043A00040700190012002900220049001A906486B
:1043B000FDF730FE05B000BD0010024000000140D6
:1043C0000010014000080140000C014000140140B1
:1043D00010B586B004464FF080401549086041F69C
:1043E0001F404860002112488160601E1049C8606B
:1043F00000210F48016180218161FFF721FA08B196
:10440000FCF73CFF4FF48050029002A90848FFF7E8
:10441000B6FA08B1FCF732FF00200090019069461F
:104420000348FFF7DCF908B1FCF728FF06B010BD20
:10443000440900202DE9F04786B082461C481D49FA
:10444000086047F27F00486000211A4881605046AA
:10445000FCF7F8F880460022174BFCF704F80646F4
:104460000022164BFBF7F9FF0446FCF70CF9114943
:10447000C86000210F480161FFF7E2F908B1FCF7BD
:10448000FDFE4FF48050029002A90A48FFF777FA28
:1044900008B1FCF7F3FE0020009001906946054842
:1044A000FFF79DF908B1FCF7E9FE06B0BDE8F0871B
:1044B0000004004084090020000004400000F03F98
:1044C00000B587B014481549086041F61F404860A0
:1044D00000211248816040F2E731C1600021016192
:1044E000FFF7AEF908B1FCF7C9FE4FF48050039016
:1044F00003A90A48FFF743FA08B1FCF7BFFE002002
:104500000190029001A90548FFF769F908B1FCF78D
:10451000B5FE07B000BD000000080040C40900203F
:1045200010B50B480B4908604FF4E130486000219A
:1045300008488160C16001610C21416100218161F5
:10454000C161FFF70AFC08B1FCF798FE10BD00003E
:1045500000380140040A00207CB504460D46002DB9
:104560004ED14FF480529B496846FCF71DFBDDE9B4
:104570000001C4E9000101224FF440619548FDF7B4
:10458000F5FE0122D1039448FDF7F0FE0122934984
:104590006846FCF709FBDDE90001C4E904011022CB
:1045A0008C496846FCF700FBDDE90001C4E9020123
:1045B000202288496846FCF7F7FADDE90001C4E9E2
:1045C0000601A18801222068FDF7D0FEA18A002201
:1045D0002069FDF7CBFEA18800222068FDF7C6FE0A
:1045E000204600F0A7F90120FDF737FC0221204604
:1045F00000F0C6F9A18801222068FDF7B7FEE8E0C7
:10460000012D48D1EA0374496846FCF7CDFADDE98B
:104610000001C4E9000101224FF4E0516D48FDF7AB
:10462000A5FE01226D496846FCF7BEFADDE90001EE
:10463000C4E90401102267496846FCF7B5FADDE9D0
:104640000001C4E90201202262496846FCF7ACFA85
:10465000DDE90001C4E90601A18801222068FDF717
:1046600085FEA18A00222069FDF780FEA188002234
:104670002068FDF77BFE204600F05CF90120FDF785
:10468000ECFB0221204600F07BF9A1880122206882
:10469000FDF76CFE9DE0022D4DD1AA024D49684602
:1046A000FCF782FADDE90001C4E9000101224FF4C0
:1046B000A0514848FDF75AFE0122D1034648FDF7B4
:1046C00055FE012245496846FCF76EFADDE9000116
:1046D000C4E9040110223F496846FCF765FADDE9A8
:1046E0000001C4E9020120223A496846FCF75CFA5D
:1046F000DDE90001C4E90601A18801222068FDF777
:1047000035FEA18A00222069FDF730FEA188002233
:104710002068FDF72BFE204600F00CF90120FDF784
:104720009CFB0221204600F02BF9A1880122206881
:10473000FDF71CFE4DE04FF4806226496846FCF709
:1047400033FADDE90001C4E9000101224FF4C05150
:104750002048FDF70BFE0122D1031F48FDF706FE9E
:1047600001221E496846FCF71FFADDE90001C4E991
:104770000401102217496846FCF716FADDE900012A
:10478000C4E90201202213496846FCF70DFADDE96D
:104790000001C4E90601A18801222068FDF7E6FDB9
:1047A000A18A00222069FDF7E1FDA188002220688E
:1047B000FDF7DCFD204600F0BDF80120FDF74DFBC4
:1047C0000221204600F0DCF8A18801222068FDF7D4
:1047D000CDFD7CBD0010014000080140000C0140EF
:1047E0002DE9F04105460E460024002731462846B3
:1047F00000F020F80446B4F5000F06D2C4F500001E
:10480000FBF71BFF80F0004704E0A4F50000FBF776
:1048100014FF07464FF096413846FBF73FFD8046B0
:104820000349FBF709FD07463846BDE8F081000063
:1048300000401C457CB504460D46ADB90122D103AC
:104840003A48FDF793FD01224FF440613848FDF7E7
:104850008DFD4FF4805236496846FCF7A5F9DDE935
:104860000001C4E900013DE0012D0FD101224FF408
:10487000E0512F48FDF77AFDEA032C496846FCF722
:1048800093F9DDE90001C4E900012BE0022D14D108
:104890000122D1032548FDF769FD01224FF4A05103
:1048A0002348FDF763FDAA0221496846FCF77CF91D
:1048B000DDE90001C4E9000114E00122D1031B4835
:1048C000FDF754FD01224FF4C0511948FDF74EFD8C
:1048D0004FF4806216496846FCF766F9DDE900018D
:1048E000C4E900010026A18800222068FDF73EFDF2
:1048F00000BFA18BA069FDF72DFD0028F9D038215C
:10490000204600F049F800BFA18BA069FDF722FD09
:104910000028F9D1204600F071F80646A18801224E
:104920002068FDF723FD30467CBD000000080140F3
:104930000010014070B50446A18A01222069FDF7EC
:1049400015FD0A2002F070FC002511E0A18900226B
:10495000A068FDF70BFD0A2002F066FCA189012288
:10496000A068FDF703FD0A2002F05EFC681CC5B2DA
:10497000202DEBDBA18A00222069FDF7F7FC70BD3A
:1049800070B504460D461021204600F005F8294672
:10499000204600F001F870BD2DE9F04104460D46B7
:1049A0008026002720E006EA050028B9A18A002217
:1049B0002069FDF7DBFC04E0A18A01222069FDF7F4
:1049C000D5FCA1890022A068FDF7D0FC0A2002F0E6
:1049D0002BFCA1890122A068FDF7C8FC0A2002F087
:1049E00023FC7610781CC7B2082FDCDBA18A0022DA
:1049F0002069FDF7BBFC0020BDE8F0812DE9F04700
:104A000004460025A94603262FE04FF0000822E0C7
:104A1000A1890022A068FDF7A9FC142002F004FC83
:104A2000A18BA069FDF796FC10B96806050E03E09E
:104A30006806050E681CC5B2142002F0F5FBA189BA
:104A40000122A068FDF792FC142002F0EDFB08F1B2
:104A5000010000F0FF08B8F1080FD9DB2F46701EE7
:104A6000C0008740B944701EC6B2002ECDDC484657
:104A7000BDE8F08700BFFEE710B5022207490848ED
:104A800000F018F800220749074800F013F8032245
:104A90000649074800F00EF810BD00006C0C00201D
:104AA000140000202C0C00201C0000208C0C002086
:104AB0002C00002070B504460E46154629463046A7
:104AC000FFF74AFD666025700020607070BD2DE91B
:104AD000F04107460C464FF07E56002506E0314671
:104AE0003846FBF7A9FB0646681CC5B2A542F6DBB3
:104AF0003046BDE8F081704702480068C0F30220EC
:104B0000704700000CED00E010B5002807DA0A0736
:104B1000140E054A00F00F031B1FD45403E00A07CC
:104B2000130E024A135410BD18ED00E000E400E03B
:104B30002DE9F05F05460C4625B1022D26D0032D48
:104B40006CD147E0A4F5C240A838FBF76DFD834661
:104B5000344801685846FBF769FB80F0004A324947
:104B60005046FBF79BFB81463049FBF797FB80469D
:104B70004FF08F41FBF760FB0746FBF770FD86B2F5
:104B8000324601212A48FBF7C6FF48E0A4F5C2409F
:104B9000A838FBF749FD8346224881685846FBF751
:104BA00045FB80F0004A20495046FBF777FB8146E1
:104BB0001E49FBF773FB80464FF08F41FBF73CFB30
:104BC0000746FBF74CFD86B2324601211948FBF738
:104BD000A2FF24E0A4F5C240A838FBF725FD8346D8
:104BE0001048C1685846FBF721FB80F0004A0E4987
:104BF0005046FBF753FB81460C49FBF74FFB8046C1
:104C00004FF08F41FBF718FB0746FBF728FD86B2F4
:104C1000324600210748FBF77EFF00E000BF00BFDF
:104C2000BDE8F09F940B00200000204100409C450F
:104C3000340B0020540B002010B53E48B0F90E0094
:104C40003C49B1F91010884239DC3B480078012812
:104C50000DD13849B1F92200002801DB014600E0FE
:104C60004142344A528A114409B2324A518231488F
:104C7000B0F912002F49B1F91010884202DDFCF79B
:104C8000EBFA07E02B48B0F912100220FFF750FFB3
:104C900000F03AFD2749B1F92200002801DB014666
:104CA00000E04142234AB2F912201144214AB2F9EC
:104CB000102091423CDD01202049087738E01E4851
:104CC000007801280DD11B49B1F92200002801DB31
:104CD000014600E04142174A528A511A09B2154A68
:104CE00051821448B0F912001249B1F910108842EB
:104CF00002DAFCF7B1FA07E00E48B0F91210022010
:104D0000FFF716FF00F000FD0A49B1F92200002864
:104D100001DB014600E04142064AB2F91220511A75
:104D2000044AB2F91020914202DA012003490877BF
:104D300010BD0000F4040020100000202405002015
:104D400010B53E48B0F908003C49B1F90A10884254
:104D500039DC3B48007801280DD13849B1F92000F1
:104D6000002801DB014600E04142344A92891144A7
:104D700009B2324A91813148B0F90C002F49B1F99A
:104D80000A10884202DDFCF767FA07E02B48B0F909
:104D90000C100020FFF7CCFE00F0B6FC2749B1F95B
:104DA0002000002801DB014600E04142234AB2F91D
:104DB0000C201144214AB2F90A2091423CDD012025
:104DC0002049087738E01E48007801280DD11B499A
:104DD000B1F92000002801DB014600E04142174AFA
:104DE0009289511A09B2154A91811448B0F90C0000
:104DF0001249B1F90A10884202DAFCF72DFA07E0ED
:104E00000E48B0F90C100020FFF792FE00F07CFC79
:104E10000A49B1F92000002801DB014600E04142C7
:104E2000064AB2F90C20511A044AB2F90A209142FA
:104E300002DA01200349087710BD0000F4040020C5
:104E400010000020240500202DE9F04705460C46FF
:104E500025B1022D1ED0032D54D137E046F2A81102
:104E6000081BFBF7E1FB82462849FBF717FA81464E
:104E70002749FBF713FA80464FF08F41FBF7DCF927
:104E80000746FBF7ECFB86B2324601212148FBF7CF
:104E900042FE38E046F2A811081BFBF7C5FB82462C
:104EA0001A49FBF7FBF981461949FBF7F7F98046E8
:104EB0004FF08F41FBF7C0F90746FBF7D0FB86B2F6
:104EC000324601211448FBF726FE1CE046F2A811E9
:104ED000081BFBF7A9FB82460C49FBF7DFF981466B
:104EE0000B49FBF7DBF980464FF08F41FBF7A4F944
:104EF0000746FBF7B4FB86B2324600210648FBF7B3
:104F00000AFE00E000BF00BFBDE8F08700002041BE
:104F100000409C45340B0020540B002010B50021AC
:104F20000220FFF791FF00210846FFF78DFFC82000
:104F3000FCF793FF4FF4FA610A48FCF701FB0446C3
:104F40000949FBF779F9094988604FF4FA61084883
:104F5000FCF7F6FA04460449FBF76EF903490860CA
:104F600010BD00001400002000002041940B002020
:104F70001C0000202DE9FC410546002400270026E6
:104F80000020019000900CE2BDF8040000F00F0634
:104F9000002E7DD1BDF8040000F0100088BB286809
:104FA000008848F60F7108402968088005F1280438
:104FB0002868B0F85010207801EBC000801C2968E8
:104FC00001F5806131F81000C0F30900E061E1698A
:104FD00060690844606100212846FDF7C1FA95F830
:104FE00024000028CFDDA0690028CCD195F824004A
:104FF00040F080002968A1F84C00002085F82400CA
:10500000CFE1FFE705F50274286800880090BDF83D
:10501000000000F4006018B32868B0F85010207841
:1050200001EBC000801D296801F5806131F8100096
:10503000C0F30900E061A18B8BB2A28805F57B71FA
:10504000286801F0F8FF28680088C0F30E0048F6D1
:105050008F710840296808802846FDF79DFCA0E173
:10506000BDF8000000F4004000288CD028680088BB
:10507000C0F30E0048F68F71084029680880286840
:10508000B0F85010207801EBC000801D296800E0C6
:1050900055E001F5806131F81000C0F30900E061CE
:1050A000E06960B1B4F81CC01FFA8CF3A288616992
:1050B000286801F0C0FFE16960690844606100216F
:1050C0002846FDF75BFA2A6802F580622868B0F886
:1050D0005000801D02EB400122693E2A10D922694E
:1050E000C2F34F10227C02F01F020AB9421E90B296
:1050F0004FF6FF7202EA802242F400420A600DE09D
:105100002269C2F34F00227C02F001020AB1421C64
:1051100090B24FF6FF7202EA80220A60296809887D
:105120004BF68F7201EA020080F4805080F4005048
:1051300040F4004141F080012A68118031E17100A2
:10514000286830F811000090BDF8000000F400401D
:1051500000287CD07100286830F81100C0F30E00E0
:1051600048F68F7108407200296821F8120005F591
:10517000027000EB4614A07AA8B92868B0F8501065
:10518000207801EBC000801D296801F5806131F8AD
:105190001000C0F30907EFB3A28861693B46286895
:1051A00001F049FF44E021784900286830F81100F7
:1051B00000F48040A8B12868B0F85010207801EBC6
:1051C000C000801C296801F5806131F81000C0F32F
:1051D0000907DFB1E28861693B46286801F02BFFCF
:1051E00014E02868B0F85010207801EBC000801D52
:1051F000296801F5806131F81000C0F309072FB16B
:10520000228961693B46286801F015FF2178490031
:10521000286800E00CE030F8110048F68F71084073
:1052200048F2C001084322785200296821F8120090
:10523000E0693844E061606938446061A06910B198
:105240002069B84204D921782846FDF797F905E08E
:1052500021782846D4E90523FDF70AFABDF80000B5
:1052600000F0800000287CD005F1280000EB4614F7
:105270007100286830F8110048F60F71084072007C
:10528000296821F81200A07AD0B92868B0F8501027
:10529000207801EBC000801C296801F5806131F89D
:1052A0001000C0F30900E061E069E8B3B4F81CC085
:1052B0001FFA8CF3A2886169286801F0D7FE4EE0DE
:1052C00021784900286830F8110000F04000D0B182
:1052D0002868B0F85010207801EBC000801C2968C5
:1052E00001F5806131F81000C0F30900E061E06968
:1052F00028B3B4F81CC01FFA8CF3E28861692868EF
:1053000001F0B4FE1BE02868B0F85010207801EBE3
:10531000C000801D296801F5806131F81000C0F3DC
:105320000900E061E06900E019E040B1B4F81CC098
:105330001FFA8CF322896169286801F097FE2178B1
:105340004900286830F8110048F68F7108404CF287
:105350008001084322785200296821F81200286849
:1053600000E01EE0B0F85010207801EBC000801C77
:10537000296801F5806131F81000C0F30900E0618F
:10538000E169606908446061A06920B92178284614
:10539000FDF7E6F805E021782846D4E90523FDF776
:1053A000D5F92868B0F84400019000F400400028C6
:1053B0007FF4EAADBDE8FC817047000070B504469B
:1053C0000D462E48007808B1002070BD607A09288B
:1053D00013DDE078217988420FDDE078401EE0702F
:1053E000E0786071607900F0F1F86179642201FB86
:1053F00002F0FCF732FD0120E7E74FF680508542CE
:1054000002DCB5F57F6F19DA60792179884213DD06
:105410001B48FEF798FA6079401E6071607900F0D1
:10542000D5F8607A401C60726179642201FB02F059
:10543000FCF713FD0120C8E70020C6E7B5F5084FCB
:1054400019DAB5F5F04F16DD6079E178884210DAA7
:105450006079401C6071607900F0B8F8607A401C97
:1054600060726179642201FB02F0FCF7F6FC012016
:10547000ABE70020A9E70020A7E70000200C0020F0
:105480004409002010B50446052C37D2DFE804F0AB
:10549000030910171E00002280211A48FCF766FF3E
:1054A0002DE000224FF400411748FCF75FFF26E093
:1054B00000224FF400511448FCF758FF1FE000226F
:1054C0004FF480411048FCF751FF18E00022802182
:1054D0000C48FCF74BFF00224FF400410A48FCF750
:1054E00045FF00224FF400510748FCF73FFF002220
:1054F0004FF480410448FCF739FF00E000BF00BFD3
:1055000010BD0000000C01400010014010B5044621
:10551000A07830B1012807D0022808D0FF280ED18A
:1055200008E0FFF7FBFC0AE001F0CEFD07E0FBF727
:1055300011FD04E003490448FBF75EFF00BF00BF14
:1055400010BD0000FF170708001007087047000093
:1055500010B50446052C31D2DFE804F003090F151D
:105560001B00012280211748FCF700FF27E00122E1
:10557000D1031548FCF7FAFE21E00122510312483D
:10558000FCF7F4FE1BE0012291030F48FCF7EEFE4E
:1055900015E0012280210B48FCF7E8FE0122D1032F
:1055A0000948FCF7E3FE012251030748FCF7DEFE41
:1055B000012291030448FCF7D9FE00E000BF00BFC0
:1055C00010BD0000000C01400010014010B5044661
:1055D000FBF7CEFB0A2C42D2DFE804F0050B1117D3
:1055E0001D23292F353B012251031E48FCF7BEFE27
:1055F00036E0012251031B48FCF7B8FE30E00122DF
:1056000010211948FCF7B2FE2AE001222021164899
:10561000FCF7ACFE24E0012240211348FCF7A6FE73
:105620001EE0012280211048FCF7A0FE18E00122B4
:1056300004210C48FCF79AFE12E0012208210948D7
:10564000FCF794FE0CE0012210210648FCF78EFEC8
:1056500006E0012211030348FCF788FE00E000BFCA
:1056600000BF10BD000C01400008014010B5044609
:10567000A078112806D10020207001212046FBF7D8
:105680004DFB1FE0A078122806D1022020700021D7
:105690002046FBF743FB15E0A078142809D12078B9
:1056A00002280FD10020207001212046FBF736FB95
:1056B00008E0A078132805D10120207000212046A1
:1056C000FBF72CFB10BD000070B50446A088FEF768
:1056D000B1FE0A48FEF737F9E08842F2107191FBFB
:1056E000F0F085B22846FEF773FE0548FEF72BF969
:1056F000FEF7E6FE0348FEF726F970BD8409002098
:1057000044090020C409002010B5022001F08CFDDE
:1057100000200549096848622520FCF7B3FE0248CD
:10572000FEF702F910BD00004409002010B5FCF797
:1057300029FEFEF74EF810BD10B596B001200C9072
:1057400000040D9000200E9002201390C1031491CC
:105750004FF4E01115910CA8FDF7D0FB08B1FBF751
:105760008DFD0F20079002200890002009904FF433
:1057700080600A9000200B90022107A8FDF7E6F94F
:1057800008B1FBF77BFD102001900020069001A8D6
:10579000FDF71EF908B1FBF771FDFDF723FB4FF490
:1057A0007A71B0FBF1F42046FDF7F9FF0420FDF714
:1057B000E1FF00221146501EFCF77FFE16B010BD1F
:1057C0001148006840F001000F4908600846406831
:1057D0000E4908400C494860084600680C490840DA
:1057E000094908600846006820F4802008600846DF
:1057F000406820F4FE0048604FF41F008860C80332
:105800000449086070470000001002400000FFF8E3
:10581000FFFFF6FE08ED00E010B50A4800680069D9
:1058200000F0010068B107480068C06800F001009E
:1058300038B16FF001000349096808610148FEF7BB
:1058400005FA10BD4409002010B50A480068006937
:1058500000F0010068B107480068C06800F001006E
:1058600038B16FF001000349096808610148FEF78B
:10587000EDF910BD8409002010B50248FEF719F9B2
:1058800010BD0000C4090020002202681F4B98428E
:105890000ED01F4B98420BD0B0F1804F08D01D4B5B
:1058A000984205D01C4B984202D01C4B984203D121
:1058B00022F070024B681A43144B98420ED0144BDE
:1058C00098420BD0B0F1804F08D0124B984205D0CF
:1058D000114B984202D0114B984203D122F44072EE
:1058E000CB681A4322F080024B691A4302608B682E
:1058F000C3620B688362054B984202D0044B984206
:1059000001D10B690363012343617047002C0140FF
:10591000003401400004004000080040000C00403A
:1059200030B50C460021816821F47F4142EA03250D
:1059300025432943816030BD0A460021816821F05A
:10594000700142F0070319438160704730B50B4680
:10595000144600210022026A056A25F0010505624D
:10596000816921F0F00141EA041122F00A021A4390
:105970008161026230BD30B50B4614460021002221
:10598000056A25F0100505628169026A21F47041FB
:1059900041EA043122F0A00242EA0312816102626C
:1059A00030BD70B505466C6A0020E085E0840120BA
:1059B00084F83900E06B40F01000E0632046FEF709
:1059C000CBF970BD70B505466C6A2868006800F0B8
:1059D000200090B90020E0852068406920F0400058
:1059E0002168486194F83900322803D1122084F8E4
:1059F000390002E0012084F839002046FEF7A8FAB9
:105A000070BD70B50446656A2846FEF7A2FA70BDFF
:105A100070B505466C6A2868006800F0200070B90F
:105A20000020E0842068406920F0800021684861FF
:105A30002068C06840F040002168C86002E020464D
:105A4000FEF74AFB70BD00002DE9F0410446002539
:105A50002068006920F44050E1680843216808612B
:105A60002169A0680843616940EA01052068C068AF
:105A700041F20C61884328432168C860206840696E
:105A800020F44070A1690843216848615F4920689B
:105A900088425CD1FDF7C2F900EBC00101EB0010B8
:105AA00061688900B0FBF1F6FDF7B8F900EBC001C1
:105AB00001EB001061688900B0FBF1F06421B0FBDC
:105AC000F1F000EBC00101EB0010A6EB80003221E9
:105AD00001EB00106421B0FBF1F000F0F006FDF7DF
